:04000000D4EF1CF02D
:10388600016E01C083FF49EC1CF012008B80060E0E
:10389600E82EFED700D08B901200B0EC1DF0046E1F
:1038A600900E0416D8B41200F8D7036E000E026EFE
:1038B6003A0E036005D02F0E036402D0010E026E8D
:1038C60002C001F001301200000E836E8B9C420E86
:1038D600E82EFED700D08B8CB0EC1DF0046E900E57
:1038E6000416D8B41200F8D7056E50EC1CF08B9471
:1038F6008B928D808D820550D8B404D03F0E43EC58
:103906001CF012003E0E43EC1CF0120009C001F040
:103916000AC002F0036A8E0E046E000E056EF2EC0B
:103926001FF001C009F002C00AF003C00BF012003C
:10393600015002100310D8B406D0000E011A000E72
:10394600021A800E031A01C001F002C002F003C081
:1039560003F012000F501102F3CF13F0F4CF14F05E
:103966000F501202F350142610501102F350142671
:1039760013C00FF014C010F0120002AE0DD001C03B
:1039860003F002C004F0031E041E034A042A03C007
:1039960001F004C002F0120001C001F002C002F002
:1039A600120003EEFFF014EE01F0EE6AE550E1506E
:1039B600FCE1E250FAE102012A6B296B5F6A5E6A5A
:1039C6005D6A5C6A000EF86E0001F7EF31F0000EDA
:1039D600186E16AE06D0156C161ED8B0162A010E35
:1039E600186E15C001F016C002F0036A8E0E046E42
:1039F60018C005F0F2EC1FF001C015F002C016F079
:103A060003C017F0120001C005F002C006F002D094
:103A1600054A062A05C0D9FF06C0DAFFDF50D8A43A
:103A2600F7D701C003F002C004F0031E041E034AC8
:103A3600042A05500324016E06500420026E12006B
:103A4600415042104310D8B406D0000E411A000E61
:103A5600421A800E431A3EC032F03FC033F040C0D7
:103A660034F041C035F042C036F043C037F02DEC9B
:103A760024F032C03EF033C03FF034C040F01200B4
:103A860001C005F002C006F002D0054A062A05C0AC
:103A9600D9FF06C0DAFFDF50D8B405D0F6D7054AFD
:103AA600062A034A042A03C0D9FF04C0DAFF05C068
:103AB600E1FF06C0E2FFDFCFE7FFE750D8B4120010
:103AC600EED7000E356E000E346E35BE06D035507C
:103AD6000EE10F0E345CD8B00AD0820E336EDE0EC5
:103AE600E82EFED7332EFCD7344A352AEED7B0EC73
:103AF6001DF0336E900E3316D8A4F9D767EC1CF080
:103B0600010E77EC1CF062EC1FF01200106E030E33
:103B160010601200070E0F6401D0120050EC1CF06A
:103B26000FC05EF05F6A8B948B9208D08D808D9269
:103B36000FD08D9001D08D808D820AD01050000A52
:103B4600D8B4F4D7010AD8B4F4D7030AD8B4F3D753
:103B56000F50B80943EC1CF01200000E8DB0010E98
:103B6600026E000E8DB2010E036E000E836E956816
:103B76008B948B828D808D82030EE82EFED700F00B
:103B860049EC1CF083CF01F08B9202B002D08D90ED
:103B960001D08D8003B002D08D9201D08D82210E8E
:103BA600E82EFED700F0000E956E01501200066E4C
:103BB600030E066012003F0E056401D0120006C017
:103BC60029F202012A6B05C05CF05D6A50EC1CF01C
:103BD6008B948B9208D08D808D920FD08D9001D0D2
:103BE6008D808D820AD00650000AD8B4F4D7010A17
:103BF600D8B4F4D7030AD8B4F3D70550400943EC38
:103C06001CF012008E0E116E06D0D8900C320B32BC
:103C16000A320932112A000E09140D6E000E0A141A
:103C26000E6E000E0B140F6EFF0E0C14106E0D5060
:103C36000E100F101010D8A4E8D709C001F00AC062
:103C460002F00BC003F011C004F0000E056EF2EC9A
:103C56001FF001C009F002C00AF003C00BF0120009
:103C66000550061007100810D8B424D0010E096EAE
:103C760006D0D8900536063607360836092A08AE25
:103C8600F8D70550015C06500258075003580850F3
:103C96000458D8A008D00550015E0650025A0750B5
:103CA600035A0850045AD8900832073206320532B1
:103CB600092EE7D701C001F002C002F003C003F0ED
:103CC60004C004F01200000E066E02AE06D0016CAF
:103CD600021ED8B0022A010E066E04AE04D0036C92
:103CE600041ED8B0042A03500410D8B418D0010E0C
:103CF600056E04D0D89003360436052A04AEFAD7EA
:103D06000350015C04500258D8A004D00350015E51
:103D16000450025AD89004320332052EF1D70650C9
:103D2600D8B404D0016C021ED8B0022A01C001F03A
:103D360002C002F012008B848B920201295102010B
:103D46002A11D8A40FD05EC002F05FC003F0070EA0
:103D5600D89002360336E82EFBD75C500224046E58
:103D66005D5012D05EC002F05FC003F0070ED8901F
:103D760002360336E82EFBD75C5002265D5003223E
:103D8600400E0224046E000E0320056E050E042468
:103D9600026E000E0520036EFF0E0224D96E030E7E
:103DA6000320DA6EDF5043EC1CF0060E5C245C6EDA
:103DB600000E5D205D6E1200000E096E000E0A6E8A
:103DC600000E0B6E000E0C6E055006100710081044
:103DD600D8B42AD0010E0D6E06D0D8900536063618
:103DE600073608360D2A08AEF8D7D89009360A36AF
:103DF6000B360C360550015C065002580750035826
:103E060008500458D8A009D00550015E0650025A41
:103E16000750035A0850045A0980D89008320732CE
:103E2600063205320D2EE1D709C001F00AC002F0B4
:103E36000BC003F00CC004F01200000E0C6E0AAEAC
:103E460006D0096C0A1ED8B00A2A010E0C6E08AEFE
:103E560006D0076C081ED8B0082A010E0C1A000EF0
:103E66000E6E000E0D6E09500A10D8B41CD0010E4D
:103E76000B6E04D0D89009360A360B2A0AAEFAD74A
:103E8600D8900D360E360950075C0A500858D8A04F
:103E960005D00950075E0A50085A0D80D8900A329C
:103EA60009320B2EEDD70C50D8B404D00D6C0E1E73
:103EB600D8B00E2A0DC007F00EC008F0120050EC64
:103EC6001CF0000E2E6E000E2D6E2EBE05D02D049B
:103ED600040E2E58D8B00BD0FF0E2D24D96E030E2B
:103EE6002E20DA6E000EDF6E2D4A2E2AEED7000E39
:103EF600306E000E2F6E30BE06D0305027E1080E11
:103F06002F5CD8B012002FC00FF0020E89EC1DF006
:103F1600000E326E000E316E32BE06D0325013E104
:103F26000D0E315CD8B00FD03150050DF3CF05F032
:103F3600020EDAEC1DF0000E156E200E6CEC29F068
:103F4600314A322AE9D72F4A302AD5D7120003AE92
:103F560016D001C007F002C008F003C009F0071E22
:103F6600081E091E072A000E08220922000E072431
:103F7600016E000E0820026E800E0920036E06AE4A
:103F860016D004C007F005C008F006C009F0071EE9
:103F9600081E091E072A000E08220922000E072401
:103FA600046E000E0820056E800E0920066E000EB7
:103FB600011A000E021A800E031A000E041A000ED1
:103FC600051A800E061A0450015C05500258065068
:103FD6000358D8B002D0D8901200D88012000450EE
:103FE600D8B405D0015002100310D8A40CD0000E8E
:103FF600016E000E026E000E036E1200042AD890A7
:10400600033202320132000E0114066E000E021453
:10401600076EFE0E0314086E065007100810D8B47B
:104026000CD0ECD7042A010E0126000E0222000E47
:104036000322D890033202320132000E0114066EBA
:10404600000E0214076EFF0E0314086E06500710CA
:104056000810D8B406D0E6D70406D8900136023642
:10406600033602BE03D0020E0460F6D704A0029EF9
:10407600D8900432045003120550D8A4038E01C010
:1040860001F002C002F003C003F012001BC01FF0D3
:10409600206A216A1A341F3601E320801F50266EDB
:1040A6002650D8A407D0000E196E000E1A6E000E08
:1040B6001B6E12001EC01FF0206A216A1D341F36B7
:1040C60001E320801F50276E2750D8A407D0000E8A
:1040D600196E000E1A6E000E1B6E1200000E236E75
:1040E600000E246E000E256E2750890F265E1BC01B
:1040F60027F01E50271A800E27161A8EFF0E191645
:10410600FF0E1A16000E1B161D8EFF0E1C16FF0E36
:104116001D16000E1E16180E226ED8902336243653
:1041260025361C50195C1D501A581E501B58D8A015
:1041360007D01C50195E1D501A5A1E501B5A238058
:10414600D89019361A361B36222EE7D723C001F02F
:1041560024C002F025C003F026C004F027C005F0F5
:10416600F2EC1FF001C019F002C01AF003C01BF0F8
:10417600120040C042F0436A446A3F34423601E3CB
:10418600438042504C6E4C50D8A409D0000E3E6E6F
:10419600000E3F6E000E406E000E416E1200170EAE
:1041A600426E3EC043F03FC044F040C045F0422856
:1041B600466E04D0D890453244324332462EFAD762
:1041C6004350476E3F8EFF0E3E16FF0E3F16000E03
:1041D60040163E50486E3F50496E40504A6E4B6AFC
:1041E6008E0E4C5E4CAE16D04C50800A8F0FD8B057
:1041F60009D0000E3E6E000E3F6E000E406E000EA1
:10420600416E1200D8904B324A32493248324C3E07
:10421600F9D715D0170E4C640FD0000E3E6E000E67
:104226003F6E000E406E000E416E1200D89048366A
:1042360049364A364B364C064C50D8A4F7D7475029
:10424600D8B408D04B1E4A1E491E486C000E49229F
:104256004A224B2248C03EF049C03FF04AC040F0D7
:104266004BC041F012001BC01FF0206A216A1A34AD
:104276001F3601E320801F50226E2250D8A407D09B
:10428600000E196E000E1A6E000E1B6E12001EC076
:104296001FF0206A216A1D341F3601E320801F505B
:1042A600276E2750D8A407D0000E196E000E1A6E7E
:1042B600000E1B6E120027507B0F22261BC027F014
:1042C6001E50271A800E27161A8E1D8EFF0E1C16DC
:1042D600FF0E1D16000E1E16000E236E000E246E17
:1042E600000E256E070E266E19A006D01C5023263A
:1042F6001D5024221E502522D8901B321A32193204
:10430600D8901C361D361E36262EEED7090E266E82
:1043160019A006D01C5023261D5024221E502522EB
:10432600D8901B321A321932D890253224322332D1
:10433600262EEED723C001F024C002F025C003F0DC
:1043460022C004F027C005F0F2EC1FF001C019F0FE
:1043560002C01AF003C01BF01200033404340C6EC2
:104366000C50D8A409D0000E016E000E026E000E8D
:10437600036E000E046E1200063407340B6E0B50EB
:10438600D8A409D0000E016E000E026E000E036E58
:10439600000E046E1200038EFF0E0116FF0E0216AB
:1043A600FF0E0316000E0416068EFF0E0416FF0EF1
:1043B6000516FF0E0616000E0716000E076E000EF7
:1043C600086E000E096E000E0A6E7F0E0C5E0B5014
:1043D600A00F0C5E200E0B6ED890073608360936F5
:1043E6000A360450015C055002580650035807501F
:1043F6000458D8A009D00450015E0550025A065050
:10440600035A0750045A0780D890013602360336FD
:1044160004360B2EE1D70CAE16D00C50800A9F0F37
:10442600D8B009D0000E016E000E026E000E036EAB
:10443600000E046E1200D8900A3209320832073292
:104446000C3EF9D715D01F0E0C640FD0000E016E6E
:10445600000E026E000E036E000E046E1200D8905F
:104466000736083609360A360C060C50D8A4F7D794
:1044760007C001F008C002F009C003F00AC004F04A
:10448600120003C007F0086A096A0234073601E31E
:10449600088007500F6E0F50D8A409D0000E016E89
:1044A600000E026E000E036E000E046E120006C0B1
:1044B60007F0086A096A0534073601E308800750E1
:1044C6000E6E0E50D8A409D0000E016E000E026EBC
:1044D600000E036E000E046E1200028EFF0E011611
:1044E600FF0E0216000E0316058EFF0E0416FF0EB3
:1044F6000516000E0616000E0A6E000E0B6E000E56
:104506000C6E000E0D6E7F0E0F5E0E50980F0F5E36
:10451600180E0E6ED8900A360B360C360D36045031
:10452600015C0550025806500358D8A007D0045025
:10453600015E0550025A0650035A0A80D890013689
:10454600023603360E2EE6D70FAE16D00F50800A6F
:10455600970FD8B009D0000E016E000E026E000E45
:10456600036E000E046E1200D8900D320C320B3220
:104576000A320F3EF9D715D0170E0F640FD0000E72
:10458600016E000E026E000E036E000E046E120027
:10459600D8900A360B360C360D360F060F50D8A4B7
:1045A600F7D70AC001F00BC002F00CC003F00DC033
:1045B60004F01200000E266E000E256E26BE06D0F2
:1045C600265010E1370E255CD8B00CD025C011F06E
:1045D600000E136E000E126E400E83EC23F0254A79
:1045E600262AECD7000E286E000E276E28BE06D0AF
:1045F600285010E17F0E275CD8B00CD0200E116E2B
:10460600000E136E000E126E275083EC23F0274A1D
:10461600282AECD7010E116E000E136E000E126ED4
:104626003F0E83EC23F0020E116E000E136E000E89
:10463600126E3E0E83EC23F0030E116E000E136E07
:10464600000E126E3D0E83EC23F0010E116E000E6D
:10465600136E000E126E410E83EC23F0020E116EE5
:10466600000E136E000E126E420E83EC23F0030E44
:10467600116E000E136E000E126E430E83EC23F0C5
:10468600200E116E000E136E000E126E7F0E83EC5E
:1046960023F01F0E116E000E136E000E126E7E0EAC
:1046A60083EC23F0210E116E000E136E000E126EB7
:1046B6007E0E83EC23F01E0E116E000E136E000E9E
:1046C600126E7D0E83EC23F0220E116E000E136E19
:1046D600000E126E7D0E83EC23F01D0E116E000E81
:1046E600136E000E126E7C0E83EC23F0230E116EF9
:1046F600000E136E000E126E7C0E83EC23F0120079
:10470600246EAC0EF66E7B0EF76E20EE16F0080EDB
:104716000900F5CFDEFFE806FBE2400E246014D068
:1047260011C007F0086A000E0A6E080E096E20EC2A
:104736001FF007500F6E000E89EC1DF024C005F027
:10474600000EDAEC1DF014D011C007F0086A000E56
:104756000A6E080E096E20EC1FF007500F6E010E50
:1047660089EC1DF02450C00F056E010EDAEC1DF029
:1047760011C007F0086A000E0A6E080E096E20ECDA
:104786001FF0D8900736D8900736D890073400081F
:1047960011241F6E11C007F0086A000E0A6E080E7B
:1047A600096E20EC1FF0070ED89007360836E82E63
:1047B600FBD724500724226E000E0820236E13BE5A
:1047C60018D0135003E11204D8A013D0FF0E2224F0
:1047D600D96E030E2320DA6EDF50146E1F50010DC2
:1047E600160EF324D96E000EF420DA6EDF50FF0A9F
:1047F6000BD013AE0BD0FF0E2224D96E030E23204E
:10480600DA6EDF50146E1E50141412D0FF0E2224DE
:10481600D96E030E2320DA6EDF50146E1F50010D81
:10482600160EF324D96E000EF420DA6EDF50141043
:10483600156E1550206E216A8B848B92205043ECA6
:104846001CF0FF0E2224D96E030E2320DA6E20C040
:10485600DFFF120034C038F0396A3A6A333438362A
:1048660001E3398038503D6E37C038F0396A3A6A0C
:104876003634383601E3398038503C6E3D50D8B472
:104886000BD03C503D5CD8B00ED03D5000083C24C7
:10489600386E180E386407D035C032F036C033F0A3
:1048A60037C034F012003C50D8B40BD03D503C5CBD
:1048B600D8B00ED03C5000083D24386E180E38642F
:1048C60007D032C032F033C033F034C034F01200B7
:1048D600060E3B6E34BE3B8E37BE3B8C338EFF0ED0
:1048E6003216FF0E3316000E3416368EFF0E3516B0
:1048F600FF0E3616000E37163C503D5CD8B01BD066
:10490600D8903536363637363C063D503C18D8B446
:104916000DD03B063BC038F0070E3816D8B406D08B
:10492600EFD7D8903432333232323D2A3C503D18DC
:10493600D8B41FD0F6D73D503C5CD8B01AD0D8902A
:104946003236333634363D063D503C18D8B40DD099
:104956003B063BC038F0070E3816D8B406D0EFD762
:10496600D8903732363235323C2A3C503D18D8A4DE
:10497600F7D73BAE0CD0FF0E321AFF0E331AFF0EDE
:10498600341A010E3226000E3322000E34223BACBE
:104996000CD0FF0E351AFF0E361AFF0E371A010E0F
:1049A6003526000E3622000E3722000E3B6E3250A0
:1049B6003526335036223450372237AE0ED0FF0E0E
:1049C600351AFF0E361AFF0E371A010E3526000E5F
:1049D6003622000E3722010E3B6E35C001F036C07E
:1049E60002F037C003F03DC004F03BC005F0F2EC26
:1049F6001FF001C032F002C033F003C034F01200E1
:104A0600316E6D0E31649FD0000E126E030E116E64
:104A1600000E0A6E0A0E096E000E046E640E036E18
:104A260031C001F0026A66EC1EF001C007F002C058
:104A360008F020EC1FF0090E07240F6E000E082068
:104A4600106EADEC1CF05E0E0F24F66E7B0E102081
:104A5600F76E0900F5CF1CF00900F5CF1DF00A002E
:104A6600F5CF1EF0000E0A6E640E096E31C007F017
:104A7600086A20EC1FF0120E07240F6E000E0820A5
:104A8600106E000E126E030E116EADEC1CF05E0E73
:104A96000F24F66E7B0E1020F76E0900F5CF19F085
:104AA6000900F5CF1AF00A00F5CF1BF036EC21F01D
:104AB60019C02EF01AC02FF01BC030F0000E126E77
:104AC600030E116E000E046E0A0E036E31C001F065
:104AD600026A66EC1EF001C00FF002C010F0ADECE9
:104AE6001CF05E0E0F24F66E7B0E1020F76E09008A
:104AF600F5CF1CF00900F5CF1DF00A00F5CF1EF02A
:104B06002EC019F02FC01AF030C01BF036EC21F081
:104B160019C02BF01AC02CF01BC02DF02BC019F0B9
:104B26002CC01AF02DC01BF0000E1C6E000E1D6E60
:104B36003F0E1E6E36EC21F019C028F01AC029F07F
:104B46001BC02AF012000A0E31645DD0000E126EF0
:104B5600030E116E000E046E0A0E036E31C001F0D4
:104B6600026A66EC1EF001C00FF002C010F0ADEC58
:104B76001CF05E0E0F24F66E7B0E1020F76E0900F9
:104B8600F5CF1CF00900F5CF1DF00A00F5CF1EF099
:104B9600000E0A6E0A0E096E31C007F0086A20EC94
:104BA6001FF0090E07240F6E000E0820106E000E6F
:104BB600126E030E116EADEC1CF05E0E0F24F66E37
:104BC6007B0E1020F76E0900F5CF19F00900F5CF1E
:104BD6001AF00A00F5CF1BF036EC21F019C02EF0C2
:104BE6001AC02FF01BC030F02EC019F02FC01AF0DB
:104BF60030C01BF0000E1C6E000E1D6E3F0E1E6EAA
:104C060036EC21F099D73150030D5E0EF324F66E83
:104C16007B0EF420F76E0900F5CF19F00900F5CFE9
:104C26001AF00A00F5CF1BF0000E1C6E000E1D6E6A
:104C36003F0E1E6E36EC21F019C028F01AC029F07E
:104C46001BC02AF01200000E296E000E286E29BE27
:104C560008D0295005E1080E285CD8B0120001D012
:104C6600120028C00FF0000E89EC1DF0000E056E34
:104C7600000EDAEC1DF08B848B92000E256E000E72
:104C8600246E25BE08D0255005E1400E245CD8B020
:104C960082D001D080D028C014F029C015F0070EAC
:104CA600D89014361536E82EFBD7245014262550F6
:104CB600152211C016F012C017F014501626155002
:104CC600172216C0F6FF17C0F7FF0800F5CF2AF027
:104CD6002AC01EF01350D8B454D0000E216E000E18
:104CE600206E21BE06D021504CE1080E205CD8B0C3
:104CF60048D02AC014F0D8901432080E14162AC0D0
:104D060015F0D8901532D8901532D8901532040E79
:104D160015162AC016F0050E176ED8901632172EE5
:104D2600FCD7020E1616186A2AAE01D0182A010EF2
:104D360018162AC019F0080E1916D89019341A6ECA
:104D46002AC01BF0040E1B16D8901B36D8901B36B3
:104D5600D8901B362AC01CF0020E1C16050E1D6EBE
:104D6600D8901C361D2EFCD72A40800B1C101B1019
:104D76001A1018101610151014101E6E204A212A2B
:104D8600B0D71E5043EC1CF0244A252A25BE83D7F3
:104D9600255001E17AD728C00FF0010E89EC1DF0ED
:104DA600000E056E010EDAEC1DF08B848B92000E60
:104DB600276E000E266E27BE08D0275005E1400E4E
:104DC600265CD8B086D001D084D028C014F029C083
:104DD60015F0070ED89014361536E82EFBD7265058
:104DE600142627501522400E1426000E152211C037
:104DF60016F012C017F0145016261550172216C0BA
:104E0600F6FF17C0F7FF0800F5CF2BF02BC01FF0F9
:104E16001350D8B454D0000E236E000E226E23BE5B
:104E260006D023504CE1080E225CD8B048D02BC0E7
:104E360014F0D8901432080E14162BC015F0D89022
:104E46001532D8901532D8901532040E15162BC08F
:104E560016F0050E176ED8901632172EFCD7020ED6
:104E66001616186A2BAE01D0182A010E18162BC07A
:104E760019F0080E1916D89019341A6E2BC01BF0AB
:104E8600040E1B16D8901B36D8901B36D8901B36AE
:104E96002BC01CF0020E1C16050E1D6ED8901C367B
:104EA6001D2EFCD72B40800B1C101B101A1018103F
:104EB6001610151014101F6E224A232AB0D71F5041
:104EC60043EC1CF0264A272A27BE7FD7275001E14C
:104ED60076D7284A292A29BEC4D6295001E1BBD64D
:104EE60012002E6E2EAEFBD02E6C2E50800A120FA4
:104EF600D8A091D0000E126E030E116E000E0A6E2F
:104F06000A0E096E000E046E640E036E2E50016EBC
:104F1600026A01BE020666EC1EF001C007F002C07E
:104F260008F020EC1FF0090E07240F6E000E082073
:104F3600106EADEC1CF05E0E0F24F66E7B0E10208C
:104F4600F76E0900F5CF1CF00900F5CF1DF00A0039
:104F5600F5CF1EF0000E0A6E640E096E2E50076E17
:104F6600086A07BE080620EC1FF0120E07240F6E13
:104F7600000E0820106E000E126E030E116EADECC0
:104F86001CF05E0E0F24F66E7B0E1020F76E0900E5
:104F9600F5CF19F00900F5CF1AF00A00F5CF1BF08E
:104FA60036EC21F019C02BF01AC02CF01BC02DF0E6
:104FB6002BC019F02CC01AF02DC01BF0000E126E7B
:104FC600030E116E000E046E0A0E036E2E50016E55
:104FD600026A01BE020666EC1EF001C00FF002C0B6
:104FE60010F0ADEC1CF05E0E0F24F66E7B0E10205A
:104FF600F76E0900F5CF1CF00900F5CF1DF00A0089
:10500600F5CF1EF036EC21F019C028F01AC029F0B1
:105016001BC02AF012002E50800A750FD8A04DD062
:10502600000E0A6E0A0E096E2E50076E086A07BE3B
:10503600080620EC1FF0090E07240F6E000E08204C
:10504600106E000E126E030E116EADEC1CF05E0EAD
:105056000F24F66E7B0E1020F76E0900F5CF19F0BF
:105066000900F5CF1AF00A00F5CF1BF0000E126EFC
:10507600030E116E000E046E0A0E036E2E50016EA4
:10508600026A01BE020666EC1EF001C00FF002C005
:1050960010F0ADEC1CF05E0E0F24F66E7B0E1020A9
:1050A600F76E0900F5CF1CF00900F5CF1DF00A00D8
:1050B600F5CF1EF036EC21F0A7D72E50030D5E0E6D
:1050C600F324F66E7B0EF420F76E0900F5CF28F078
:1050D6000900F5CF29F00A00F5CF2AF012002E506C
:1050E600800A120FD8A091D0000E126E030E116E18
:1050F600000E0A6E0A0E096E000E046E640E036E32
:105106002E50016E026A01BE020666EC1EF001C058
:1051160007F002C008F020EC1FF0090E07240F6EFE
:10512600000E0820106EADEC1CF0850E0F24F66EF6
:105136007B0E1020F76E0900F5CF1CF00900F5CFA5
:105146001DF00A00F5CF1EF0000E0A6E640E096E01
:105156002E50076E086A07BE080620EC1FF0120ED6
:1051660007240F6E000E0820106E000E126E030E3E
:10517600116EADEC1CF0850E0F24F66E7B0E102022
:10518600F76E0900F5CF19F00900F5CF1AF00A00FD
:10519600F5CF1BF036EC21F019C02BF01AC02CF01D
:1051A6001BC02DF02BC019F02CC01AF02DC01BF01F
:1051B600000E126E030E116E000E046E0A0E036EC2
:1051C6002E50016E026A01BE020666EC1EF001C098
:1051D6000FF002C010F0ADEC1CF0850E0F24F66E39
:1051E6007B0E1020F76E0900F5CF1CF00900F5CFF5
:1051F6001DF00A00F5CF1EF036EC21F019C028F09C
:105206001AC029F01BC02AF012002E50800A750F12
:10521600D8A04DD0000E0A6E0A0E096E2E50076EEB
:10522600086A07BE080620EC1FF0090E07240F6E59
:10523600000E0820106E000E126E030E116EADECFD
:105246001CF0850E0F24F66E7B0E1020F76E0900FB
:10525600F5CF19F00900F5CF1AF00A00F5CF1BF0CB
:10526600000E126E030E116E000E046E0A0E036E11
:105276002E50016E026A01BE020666EC1EF001C0E7
:105286000FF002C010F0ADEC1CF0850E0F24F66E88
:105296007B0E1020F76E0900F5CF1CF00900F5CF44
:1052A6001DF00A00F5CF1EF036EC21F0A7D72E50E0
:1052B600030D850EF324F66E7B0EF420F76E0900BF
:1052C600F5CF28F00900F5CF29F00A00F5CF2AF02E
:1052D60012001D6E030E156401D01200E00E1D248F
:1052E6001E6E1F6AFF0E1F2250EC1CF020D2020118
:1052F600295102012A11D8A40FD05EC016F05FC052
:1053060017F0070ED89016361736E82EFBD75C50E6
:1053160016242B6E5D5012D05EC016F05FC017F0DB
:10532600070ED89016361736E82EFBD75C50162691
:105336005D501722400E16242B6E000E17202C6E81
:105346008B848B92000E216E000E206E21BE08D03B
:10535600215005E1050E205CD8B0120001D01200E4
:1053660020502B24166E21502C20176EFF0E16246B
:10537600D96E030E1720DA6E1EC00FF01FC010F094
:10538600000E126E050E116EADEC1CF05B0E186E63
:10539600790E196E0F501826105019222050182613
:1053A6002150192218C0F6FF19C0F7FF0800F5CFE3
:1053B6001AF020502B241B6E21502C201C6EFF0E41
:1053C6001B24E16E030E1C20E26EE7501A10DF6EFE
:1053D600DF502A6E2A5043EC1CF0204A212A21BEB7
:1053E600BFD7215001E1B6D712005EC00FF0000E04
:1053F60089EC1DF0010E056E000EDAEC1DF05EC0A4
:1054060016F05FC017F0070ED89016361736E82E3E
:10541600FBD75C5016242B6E5D5017202C6E8B84A8
:105426008B92000E236E000E226E23BE08D02350F0
:1054360005E1050E225CD8B0120001D01200225000
:105446002B24166E23502C20176EFF0E1624D96EB1
:10545600030E1720DA6E1EC00FF01FC010F0000EEC
:10546600126E050E116EADEC1CF05B0E186E790E09
:10547600196E0F5018261050192222501826235044
:10548600192218C0F6FF19C0F7FF0800F5CF1AF069
:1054960022502B241B6E23502C201C6EFF0E1B2427
:1054A600E16E030E1C20E26EE7501A10DF6EDF502D
:1054B6002A6E2A5043EC1CF0224A232A23BEBFD769
:1054C600235001E1B6D712005EC00FF0000E89EC42
:1054D6001DF03D0E056E000EDAEC1DF05EC016F0F6
:1054E6005FC017F0070ED89016361736E82EFBD792
:1054F6005C5016242B6E5D5017202C6E8B848B927D
:10550600000E256E000E246E25BE06D0255044E101
:10551600030E245CD8B040D024502B24166E2550A0
:105526002C20176EFF0E1624D96E030E1720DA6E86
:105536001EC00FF01FC010F0000E126E050E116E89
:10554600ADEC1CF05B0E186E790E196E0F50182616
:1055560010501922245018262550192218C0F6FF7B
:1055660019C0F7FF0800F5CF1AF024502B241B6E44
:1055760025502C201C6EFF0E1B24E16E030E1C20F2
:10558600E26EE7501A10DF6EDF502A6E2A5043ECA7
:105596001CF0244A252AB8D75EC00FF0010E89EC0C
:1055A6001DF0000E056E010EDAEC1DF08B848B9259
:1055B600000E276E030E266E27BE08D0275005E183
:1055C600050E265CD8B0120001D0120026502B24FE
:1055D600166E27502C20176EFF0E1624D96E030E5A
:1055E6001720DA6E1EC00FF01FC010F0000E126EEC
:1055F600050E116EADEC1CF05B0E186E790E196E71
:105606000F501826105019222650182627501922F6
:1056160018C0F6FF19C0F7FF0800F5CF1AF026509C
:105626002B241B6E27502C201C6EFF0E1B24E16EB4
:10563600030E1C20E26EE7501A10DF6EDF502A6E52
:105646002A5043EC1CF0264A272A27BEBFD72750EC
:1056560001E1B6D712005EC00FF0010E89EC1DF015
:105666003B0E056E010EDAEC1DF05EC016F05FC053
:1056760017F0070ED89016361736E82EFBD75C5073
:1056860016265D501722400E16242B6E000E17208C
:105696002C6E8B848B92000E296E000E286E29BE0E
:1056A60006D0295052E1050E285CD8B012002850C9
:1056B6002B24166E29502C20176EFF0E1624D96E39
:1056C600030E1720DA6E1EC00FF01FC010F0000E7A
:1056D600126E050E116EADEC1CF05B0E186E790E97
:1056E600196E0F50182610501922285018262950C6
:1056F600192218C0F6FF19C0F7FF0800F5CF1AF0F7
:1057060028502B241B6E29502C201C6EFF0E1B24A8
:10571600E16E030E1C20E26EE7501A10DF6EDF50BA
:105726002A6E2A5043EC1CF0284A292AB8D715506D
:10573600000AD8B4DCD5010AD8B457D6030AD8B4BF
:10574600C3D6010AD8A4120086D712004A6E040EE8
:105756004A6012002D502E10D8B4120050EC1CF0E6
:105766002DC001F02EC002F006EC1DF001C04DF078
:1057760002C04EF04A50D8B40ED015D0000E156EA9
:105786002DC0D9FF2EC0DAFFDF506CEC29F02D4A70
:105796002E2A9EEC1EF02DC0D9FF2EC0DAFFDF5058
:1057A600D8B41200EBD74A04D8A486D05EC00FF056
:1057B600000E89EC1DF0010E056E000EDAEC1DF0F0
:1057C6004EBE06D04E5023E10B0E4D5CD8B01FD016
:1057D600000E356E000E346E0FD0000E156E2DC005
:1057E600D9FF2EC0DAFFDF506CEC29F02D4A2E2AA5
:1057F6009EEC1EF0344A352A4D50345C3550800AF2
:105806002F6E4E50800A2F58D8B01200E6D7000EE1
:10581600476E000E466E47BE06D0475014E10A0E8C
:10582600465CD8B010D0000E156E2DC0D9FF2EC024
:10583600DAFFDF506CEC29F02D4A2E2A9EEC1EF082
:10584600464A472AE8D75EC00FF0000E89EC1DF0E5
:10585600020E156E2DC0D9FF2EC0DAFFDF506CEC9C
:1058660029F02D4A2E2A5EC00FF0010E89EC1DF09C
:10587600030E056E010EDAEC1DF0000E376E0B0EF0
:10588600366E0FD0000E156E2DC0D9FF2EC0DAFF72
:10589600DF506CEC29F09EEC1EF02D4A2E2A364A7B
:1058A600372A4D50365C3750800A2F6E4E50800A8C
:1058B6002F58D8B01200E6D7020E4A18D8A4CCD07A
:1058C6004DC007F04EC008F0000E0A6E020E096EBB
:1058D60020EC1FF007C04BF008C04CF04DB055D07F
:1058E6005EC00FF0000E89EC1DF04B50060DF35014
:1058F60000083F0F056E000EDAEC1DF0000E396E43
:10590600000E386E0FD0000E156E2DC0D9FF2EC0BA
:10591600DAFFDF506CEC29F02D4A2E2A9EEC1EF0A1
:10592600384A392A4B50385C3950800A2F6E4C5011
:10593600800A2F58D8A0E7D75EC00FF0010E89EC79
:105946001DF0000E056E010EDAEC1DF04BC03AF0AC
:105956004CC03BF00FD0000E156E2DC0D9FF2EC0E7
:10596600DAFFDF506CEC29F02D4A2E2A9EEC1EF051
:105976003A4A3B2A4D503A5C3B50800A2F6E4E50B5
:10598600800A2F58D8B01200E6D75EC00FF0000E7E
:1059960089EC1DF04B50060DF35000083D0F056EC7
:1059A600000EDAEC1DF0000E3D6E000E3C6E0FD0C0
:1059B600000E156E2DC0D9FF2EC0DAFFDF506CEC3D
:1059C60029F02D4A2E2A9EEC1EF03C4A3D2A4B50C9
:1059D6003C5C3D50800A2F6E4C50800A2F58D8A050
:1059E600E7D75EC00FF0000E89EC1DF0020E156EB3
:1059F6002DC0D9FF2EC0DAFFDF506CEC29F02D4AFE
:105A06002E2A5EC00FF0010E89EC1DF0030E056E06
:105A1600010EDAEC1DF0010E4B243E6E000E4C20FA
:105A26003F6E0FD0000E156E2DC0D9FF2EC0DAFFC7
:105A3600DF506CEC29F02D4A2E2A9EEC1EF03E4AD1
:105A46003F2A4D503E5C3F50800A2F6E4E50800AD2
:105A56002F58D8B01200E6D74EBE06D04E5031E1D0
:105A66000B0E4D5CD8B02DD05EC00FF0010E89EC48
:105A76001DF04D50060DF35000083F0F056E010E48
:105A8600DAEC1DF0000E416E000E406E0FD0000ED7
:105A9600156E2DC0D9FF2EC0DAFFDF506CEC29F051
:105AA6009EEC1EF02D4A2E2A404A412A4D50405C5B
:105AB6004150800A2F6E4E50800A2F58D8B01200DF
:105AC600E6D70B0E4D184E10D8A43DD05EC00FF091
:105AD600000E89EC1DF0020E156E2DC0D9FF2EC0EA
:105AE600DAFFDF506CEC29F02D4A2E2A5EC00FF04B
:105AF600010E89EC1DF0030E056E010EDAEC1DF0A9
:105B0600000E496E000E486E49BE08D0495005E1A8
:105B16000A0E485CD8B0120001D01200000E156EB5
:105B26002DC0D9FF2EC0DAFFDF506CEC29F02D4ACC
:105B36002E2A9EEC1EF0484A492A49BEEFD7495004
:105B460001E1E6D712005EC00FF0000E89EC1DF0F1
:105B56004D50060DF35000087E0F056E000EDAEC70
:105B66001DF0000E436E000E426E0FD0000E156E35
:105B76002DC0D9FF2EC0DAFFDF506CEC29F02D4A7C
:105B86002E2A9EEC1EF0424A432AF50E2F6EFF0E79
:105B9600306E4DC031F04EC032F02F5031263050AD
:105BA60032223150425C4350800A336E3250800AB2
:105BB6003358D8A0DBD75EC00FF0000E89EC1DF07D
:105BC600020E156E2DC0D9FF2EC0DAFFDF506CEC29
:105BD60029F02D4A2E2A5EC00FF0010E89EC1DF029
:105BE600030E056E010EDAEC1DF0F60E4D24446E22
:105BF600FF0E4E20456E0FD0000E156E2DC0D9FF3C
:105C06002EC0DAFFDF506CEC29F02D4A2E2A9EECCE
:105C16001EF0444A452A4D50445C4550800A2F6E7A
:105C26004E50800A2F58D8B01200E6D7510E000108
:105C3600636F000E0001646FC3D3250E0001761951
:105C4600D8B407D04DC0D9FF4EC0DAFF76C0DFFF0B
:105C5600B5D3000E0001666F000E656F4FC0F6FFEC
:105C660050C0F7FF0800F5502E0AD8A432D0000124
:105C7600668D4F4A502A000E0001726F000E716F3A
:105C86001DD071C00FF072C010F0000E126E0A0E19
:105C9600116EADEC1CF04FC0F6FF50C0F7FF0800C8
:105CA600F5500F26000E1022D00E0F240001716F42
:105CB600FF0E10200001726F4F4A502A4FC0F6FFA8
:105CC60050C0F7FF0800F55058EC1CF0D8A00CD0D7
:105CD600D8D7000E0001726F000E716F0001668941
:105CE60003D00001668512D04FC0F6FF50C0F7FF03
:105CF6004F4A502A0800F5CF76F000017651000A87
:105D0600D8B46BD3660AD8B4ECD75AD3070E0001C1
:105D16006615D8B406D3000166A905D0000E0001A9
:105D2600726F060E716F63C0D9FF64C0DAFFDECFF3
:105D360073F0DECF74F0DDCF75F0030E000163273C
:105D4600000E6423000175AF11D073C001F074C05A
:105D560002F075C003F09BEC1CF001C073F002C0AA
:105D660074F003C075F0030E00016513000E000108
:105D76006C6F000E6B6F000173510001741100010E
:105D86007511D8B48BD0820E546EFF0E556E73C04B
:105D960056F074C057F075C058F076C059F0100E22
:105DA60005D0D8905932583257325632E82EF9D7A4
:105DB6005650542400016B6F000E552000016C6F85
:105DC60000016B07D8A06C076BC00FF06CC010F019
:105DD600000E126E030E116EADEC1CF00FC06BF0D0
:105DE60010C06CF06BC007F06CC008F0000E0A6EB5
:105DF6000A0E096E20EC1FF007C06BF008C06CF0AD
:105E060000016CAF04D000016B07D8A06C0700013D
:105E16006B51000874EC27F028C06DF029C06EF0B5
:105E26002AC06FF06DC019F06EC01AF06FC01BF07B
:105E360073C01CF074C01DF075C01EF036EC21F066
:105E460019C06DF01AC06EF01BC06FF06DC001F086
:105E56006EC002F06FC003F0000E046E800E056E79
:105E66003F0E066EAAEC1FF0D8B005D000016B07F6
:105E7600D8A06C0713D06DC001F06EC002F06FC0E1
:105E860003F0000E046E200E056E410E066EAAEC9F
:105E96001FF0D8A003D000016B4B6C2B000172BF22
:105EA60008D0000172511DE10D0E0001715DD8B0E0
:105EB60018D073C032F074C033F075C034F00001EE
:105EC600715103EC25F028C035F029C036F02AC000
:105ED60037F02DEC24F032C073F033C074F034C0C8
:105EE60075F000016CBF08D000016C5126E10A0E66
:105EF60000016B5DD8B021D000017351000174110F
:105F060000017511D8B45BD073C03EF074C03FF089
:105F160075C040F0BCEC20F03E503F1040104110E0
:105F2600D8A44DD000016CBF4AD000016C5105E1E8
:105F3600020E00016B5DD8A042D06DC001F06EC0AC
:105F460002F06FC003F0700E046E890E056E400EEF
:105F5600066EAAEC1FF0D8B003D00001F70E02D0EF
:105F66000001F80E6B27FF0E6C2300016B5174ECD9
:105F760027F028C06DF029C06EF02AC06FF073C0FC
:105F860001F074C002F075C003F06DC004F06EC07D
:105F960005F06FC006F044EC22F001C067F002C0C5
:105FA60068F003C069F004C06AF0000E0001736F68
:105FB600000E0001746F000E0001756F33D073C0C0
:105FC6003EF074C03FF075C040F0BCEC20F03EC01F
:105FD60067F03FC068F040C069F041C06AF073C026
:105FE6003EF074C03FF075C040F067C009F068C06D
:105FF6000AF069C00BF06AC00CF005EC1EF009C08F
:1060060041F00AC042F00BC043F023EC1DF03EC045
:1060160073F03FC074F040C075F0000E00016C6F65
:10602600000E6B6F010E0001766F0A0E00017619E5
:10603600D8B41ED000017651040D360EF324F66E48
:106046007B0EF420F76E0900F5500001675D09002C
:10605600F550000168590900F55000016959090019
:10606600F55000016A59D8A003D00001762BDDD780
:10607600030E00016515546E000E00016615556E7F
:1060860054505510D8B453D04DC0D9FF4EC0DAFF86
:106096002D0E4BD04D4A4E2A4AD067C001F068C03B
:1060A60002F069C003F06AC004F000017651040DE5
:1060B600360EF324F66E7B0EF420F76E0900F5CF4C
:1060C60005F00900F5CF06F00900F5CF07F00A0044
:1060D600F5CF08F0DFEC1EF001C06DF002C06EF0E7
:1060E60003C06FF004C070F06DC001F06EC002F026
:1060F6006FC003F070C004F00A0E056E000E066E47
:10610600000E076E000E086E33EC1EF001C06DF037
:1061160002C06EF003C06FF004C070F000016D5154
:10612600300F4DC0D9FF4EC0DAFFDF6EB3D7000186
:10613600760700017629D8B40DD0AFD74DC0D9FF68
:106146004EC0DAFF300EDF6E4D4A4E2A00016B0755
:10615600D8A06C0700016CBF07D000016C51EEE1BE
:1061660000016B05D8B0EAD7000172BF0CD0000160
:10617600725105E1090E0001715DD8A004D0080E28
:106186000001766F02D071C076F0000176510001F1
:10619600715F000E000176BFFF0E0001725B000109
:1061A60076510001D8B408D04DC0D9FF4EC0DAFFF1
:1061B6002E0EDF6E4D4A4E2A0001765174EC27F002
:1061C60028C060F029C061F02AC062F073C01CF0DC
:1061D60074C01DF075C01EF060C019F061C01AF0E1
:1061E60062C01BF036EC21F019C03EF01AC03FF039
:1061F6001BC040F0BCEC20F03EC067F03FC068F02A
:1062060040C069F041C06AF072D067C001F068C052
:1062160002F069C003F06AC004F000017651040D73
:10622600360EF324F66E7B0EF420F76E0900F5CFDA
:1062360005F00900F5CF06F00900F5CF07F00A00D2
:10624600F5CF08F0DFEC1EF001C06DF002C06EF075
:1062560003C06FF004C070F06DC001F06EC002F0B4
:106266006FC003F070C004F00A0E056E000E066ED5
:10627600000E076E000E086E33EC1EF001C06DF0C6
:1062860002C06EF003C06FF004C070F000016D51E3
:10629600300F4DC0D9FF4EC0DAFFDF6E4D4A4E2A91
:1062A60067C001F068C002F069C003F06AC004F07C
:1062B60000017651040D360EF324F66E7B0EF420A3
:1062C600F76E0900F5CF05F00900F5CF06F00900D5
:1062D600F5CF07F00A00F5CF08F033EC1EF001C049
:1062E60067F002C068F003C069F004C06AF00001FC
:1062F600760700017629D8B40DD087D74DC0D9FFCF
:106306004EC0DAFF300EDF6E4D4A4E2A000171078D
:10631600D8A072070001715100017211D8B450D093
:10632600EDD70001715100017211D8A40DD0000102
:106336006751000168110001691100016A11D8A4B2
:1063460003D00001714B722B800E000176BF7F0EC9
:10635600546E000171510001765D00017251800A90
:106366005458D8B003D071C076F016D000017251DF
:10637600800A546E000176510001715D800E0001A5
:1063860076BF7F0E5458D8B007D000017651000171
:10639600716F726B71BF7207030E00016515546E43
:1063A600000E00016615556E54505510D8B408D02D
:1063B6004DC0D9FF4EC0DAFF2D0EDF6E4D4A4E2A74
:1063C6004FC0F6FF50C0F7FF4F4A502A0800F5CFDE
:1063D60076F000017651D8A430D44DC0D9FF4EC016
:1063E600DAFF000EDF6E120092689368000E946E5C
:1063F600000E956E000E966E000E826E000E836E77
:10640600000E846EC19AC198C180C192C184C196A2
:10641600C08EC09AC098C086C084C092C080010E4B
:10642600C26E000E0001D66F000E0001D76F000E7F
:106436000001D86F000E0001CF6F000ECE6F64EC26
:106446001DF0B50E116E7B0E126E010E136E26EC4C
:1064560026F0000E0001DD6F000EDC6F0001DDBFCF
:1064660008D02C0E0001DC5D010E0001DD59D8B00C
:106476000BD0820E5A6EDE0EE82EFED75A2EFCD7B1
:106486000001DC4BDD2BEAD762EC1FF081A0FAEFAE
:1064960039F0000E0001CF6F010ECE6F000E020123
:1064A6001C6F000E1B6F000E02011E6F000E1D6F8B
:1064B600000E0201206F000E1F6F000E0201226FF8
:1064C600000E216FF3EF39F081A2E3D302011F51D1
:1064D60002012011D8A406D0020121510201221185
:1064E600D8B443D1000E356E200E366EC00E376E10
:1064F600000E1C6EA00E1D6E3B0E1E6E1FC25AF0C5
:1065060020C25BF05A1E5B1E5A4A5B2AD8905A3646
:106516005B36800E5A26000E5B22000E5A24D96E78
:10652600010E5B20DA6EDECF09F0DDCF0AF089ECD2
:106536001CF009C019F00AC01AF00BC01BF036ECAB
:1065460021F019C032F01AC033F01BC034F02DEC24
:1065560024F032C023F233C024F234C025F216C22E
:106566001CF017C21DF018C21EF023C219F024C277
:106576001AF025C21BF036EC21F019C026F21AC01B
:1065860027F21BC028F2000E1C6E000E1D6E400E78
:106596001E6E26C219F027C21AF028C21BF036EC6E
:1065A60021F019C03EF01AC03FF01BC040F0BCEC11
:1065B60020F03EC0C0F03FC0C1F0000E356E200E88
:1065C600366EC00E376E000E1C6EA00E1D6E3B0E94
:1065D6001E6E21C25AF022C25BF05A1E5B1E5A4A38
:1065E6005B2AD8905A365B36800E5A26000E5B22FE
:1065F600000E5A24D96E010E5B20DA6EDECF09F04A
:10660600DDCF0AF089EC1CF009C019F00AC01AF0B7
:106616000BC01BF036EC21F019C032F01AC033F073
:106626001BC034F02DEC24F032C023F233C024F228
:1066360034C025F216C21CF017C21DF018C21EF097
:1066460023C219F024C21AF025C21BF036EC21F041
:1066560019C026F21AC027F21BC028F2000E1C6EC3
:10666600000E1D6E400E1E6E26C219F027C21AF0CD
:1066760028C21BF036EC21F019C03EF01AC03FF0DC
:106686001BC040F0BCEC20F03EC0C2F03FC0C3F0DF
:10669600000E02011A6F080E196F02011ABF08D008
:1066A60002011A5159E1380E0201195DD8B054D0D1
:1066B600C0C05AF0C1C05BF05A1E5B1E5A4A5B2A24
:1066C600200E5A26000E5B22020119515A1805E1C6
:1066D60002011A515B18D8B413D0200E0201191901
:1066E60002011A11D8B40CD019C211F0000E136EA3
:1066F600010E126E02011F510008400F83EC23F0B9
:10670600C2C05AF0C3C05BF05A1E5B1E5A4A5B2ACF
:10671600200E5A26000E5B22020119515A1805E175
:1067260002011A515B18D8B413D0200E02011919B0
:1067360002011A11D8B40CD019C211F0000E136E52
:10674600010E126E020121510008400F83EC23F066
:106756000201194B1A2BA1D7000E0201226F000E5F
:10676600216F21C21FF222C220F2000E0001F36F38
:10677600000EF26F000E0001F56F000EF46F0D0EA5
:10678600C26EC282C2B2FED7C4505A6EC350000156
:10679600DE6F5AC0DFF0DEC05AF0DFC05BF05A1E73
:1067A6005B1E5A4A5B2A000E5A24076E020E5B20B5
:1067B600086E000E0A6E150E096E20EC1FF007C05B
:1067C600F2F008C0F3F002011B510001F21906E1D4
:1067D60002011C510001F319D8B4D7D0000E0201F2
:1067E6000B6F000E0A6F02010BBF0AD002010B519C
:1067F60006E1800E02010A5DD8B0A4D001D0A2D075
:10680600000E356E200E366EC00E376E000E1C6EF4
:10681600A00E1D6E3B0E1E6ED89002010A35D96E73
:1068260002010B35DA6E000ED926010EDA22DECF12
:1068360009F0DDCF0AF089EC1CF009C019F00AC096
:106846001AF00BC01BF036EC21F019C032F01AC05A
:1068560033F01BC034F02DEC24F032C023F233C0E9
:1068660024F234C025F216C21CF017C21DF018C25D
:106876001EF023C219F024C21AF025C21BF036EC12
:1068860021F019C026F21AC027F21BC028F2000E0A
:106896001C6E000E1D6E400E1E6E26C219F027C21B
:1068A6001AF028C21BF036EC21F019C03EF01AC0CF
:1068B6003FF01BC040F0BCEC20F03EC0C4F03FC02F
:1068C600C5F002011B510001C41906E102011C5169
:1068D6000001C519D8B41FD0400E02010A190201E1
:1068E6000B11D8B418D002011D5102011B1906E183
:1068F60002011E5102011C19D8B40DD002011B5110
:106906000008200F116E000E136E010E126E0201AA
:106916000A5183EC23F00001F2510008200F116E9A
:10692600000E136E000E126E02010A5183EC23F064
:1069360002010A4B0B2B02010BBF62D702010B515E
:1069460001E157D7F2C01BF2F3C01CF2000E0001A2
:10695600F76F460EF66F0001F7BF08D00001F7513A
:1069660012E1800E0001F65DD8B00DD0000E116E5A
:10697600FF0E136E12680001F65183EC23F000013E
:10698600F64BF72BE8D7DDEC22F0110EC26EC28271
:10699600C2B2FED7C4505A6EC3500001DE6F5AC051
:1069A600DFF0DEC05AF0DFC05BF05A1E5B1E5A4AAB
:1069B6005B2A000E5A24076E020E5B20086E000E3C
:1069C6000A6E150E096E20EC1FF007C0F4F008C021
:1069D600F5F002011D510001F41906E102011E51F4
:1069E6000001F519D8B4D7D0000E02010D6F000EC4
:1069F6000C6F02010DBF0AD002010D5106E1800E97
:106A060002010C5DD8B0A4D001D0A2D0000E356E24
:106A1600200E366EC00E376E000E1C6EA00E1D6E5A
:106A26003B0E1E6ED89002010C35D96E02010D3553
:106A3600DA6E000ED926010EDA22DECF09F0DDCF9E
:106A46000AF089EC1CF009C019F00AC01AF00BC054
:106A56001BF036EC21F019C032F01AC033F01BC01F
:106A660034F02DEC24F032C023F233C024F234C0CB
:106A760025F216C21CF017C21DF018C21EF023C262
:106A860019F024C21AF025C21BF036EC21F019C009
:106A960026F21AC027F21BC028F2000E1C6E000E4A
:106AA6001D6E400E1E6E26C219F027C21AF028C2AD
:106AB6001BF036EC21F019C03EF01AC03FF01BC0A7
:106AC60040F0BCEC20F03EC0C6F03FC0C7F002016B
:106AD6001D510001C61906E102011E510001C71928
:106AE600D8B41FD0400E02010C1902010D11D8B402
:106AF60018D002011B5102011D1906E102011C51A9
:106B060002011E19D8B40DD002011D510008200F34
:106B1600116E000E136E010E126E02010C5183EC03
:106B260023F00001F4510008200F116E000E136EC1
:106B3600000E126E02010C5183EC23F002010C4B85
:106B46000D2B02010DBF62D702010D5101E157D78E
:106B5600F4C01DF2F5C01EF2000E0001F96F460EDC
:106B6600F86F0001F9BF08D00001F95112E1800E5B
:106B76000001F85DD8B00DD0000E116EFF0E136E39
:106B860012680001F85183EC23F00001F84BF92B51
:106B9600E8D7DDEC22F01DC25AF01EC25BF05A1E89
:106BA6005B1E5A4A5B2A02011B515A24016E0201DE
:106BB6001C515B20026EC0EC1CF001C015F002C037
:106BC60016F0EAEC1CF015C019F016C01AF017C042
:106BD6001BF004C21CF005C21DF006C21EF036EC06
:106BE60021F019C0EAF01AC0EBF01BC0ECF0EAC0C5
:106BF60001F0EBC002F0ECC003F0000E046E800E54
:106C0600056E3F0E066EAAEC1FF0D8A011D0AC0E92
:106C16004D6E000E4E6EF80E4F6E7F0E506EEAC031
:106C260051F0EBC052F0ECC053F019EC2EF024D02A
:106C3600EAC019F0EBC01AF0ECC01BF0000E1C6E97
:106C46007A0E1D6E440E1E6E36EC21F019C0D9F078
:106C56001AC0DAF01BC0DBF0AC0E4D6E000E4E6EA5
:106C6600F10E4F6E7F0E506ED9C051F0DAC052F061
:106C7600DBC053F019EC2EF0000E0F6E010E89ECFE
:106C86001DF0AC0E2D6E000E2E6E030EA9EC2BF031
:106C96007FD302011B5102011C11D8A406D00201A8
:106CA6001D5102011E11D8B4C6D0000E0201136F89
:106CB600000E126F020113BF0AD00201135106E142
:106CC600800E0201125DD8B0ABD001D0A9D0000E63
:106CD600356E200E366EC00E376E000E1C6EA00E80
:106CE6001D6E3B0E1E6ED89002011235D96E020142
:106CF6001335DA6E000ED926010EDA22DECF09F040
:106D0600DDCF0AF089EC1CF009C019F00AC01AF0B0
:106D16000BC01BF036EC21F019C032F01AC033F06C
:106D26001BC034F02DEC24F032C023F233C024F221
:106D360034C025F216C21CF017C21DF018C21EF090
:106D460023C219F024C21AF025C21BF036EC21F03A
:106D560019C026F21AC027F21BC028F2000E1C6EBC
:106D6600000E1D6E400E1E6E26C219F027C21AF0C6
:106D760028C21BF036EC21F019C03EF01AC03FF0D5
:106D86001BC040F0BCEC20F03EC0D2F03FC0D3F0B8
:106D960002011B510001D21906E102011C5100013A
:106DA600D319D8B414D0400E0201121902011311DE
:106DB600D8B40DD002011B510008200F116E000E31
:106DC600136E010E126E0201125183EC23F00201C2
:106DD6001D510001D21906E102011E510001D3190D
:106DE600D8B414D0400E0201121902011311D8B4FE
:106DF6000DD002011D510008200F116E000E136EFA
:106E0600010E126E0201125183EC23F00201124BA5
:106E1600132B020113BF5BD70201135101E150D7B7
:106E2600000E02011E6F000E1D6F1DC21BF21EC258
:106E36001CF2DDEC22F0000E0001FB6F000EFA6F73
:106E4600000E0001FD6F000EFC6F0D0EC26EC282B9
:106E5600C2B2FED7C4505A6EC3500001E06F5AC08A
:106E6600E1F0E0C05AF0E1C05BF05A1E5B1E5A4AE0
:106E76005B2A000E5A24076E020E5B20086E000E77
:106E86000A6E080E096E20EC1FF007C0FAF008C063
:106E9600FBF002011F510001FA1906E1020120511F
:106EA6000001FB19D8B4E7D0000E356E200E366E01
:106EB600C00E376E000E1C6EA00E1D6E3B0E1E6EB3
:106EC6001FC25AF020C25BF05A1E5B1E5A4A5B2A4A
:106ED600D8905A365B36800E5A26000E5B22000E7C
:106EE6005A24D96E010E5B20DA6EDECF09F0DDCFB3
:106EF6000AF089EC1CF009C019F00AC01AF00BC0A0
:106F06001BF036EC21F019C032F01AC033F01BC06A
:106F160034F02DEC24F032C023F233C024F234C016
:106F260025F216C21CF017C21DF018C21EF023C2AD
:106F360019F024C21AF025C21BF036EC21F019C054
:106F460026F21AC027F21BC028F2000E1C6E000E95
:106F56001D6E400E1E6E26C219F027C21AF028C2F8
:106F66001BF036EC21F019C03EF01AC03FF01BC0F2
:106F760040F0BCEC20F03EC0C8F03FC0C9F0000EA7
:106F860002010F6F080E0E6F02010FBF08D002013B
:106F96000F514EE1380E02010E5DD8B049D0C8C07F
:106FA6005AF0C9C05BF05A1E5B1E5A4A5B2A200E75
:106FB6005A26000E5B2202010E515A1805E1020103
:106FC6000F515B18D8B41ED0200E02010E19020113
:106FD6000F11D8B417D00201215102011F1906E181
:106FE6000201225102012019D8B40CD00EC211F0B0
:106FF600000E136E010E126E02011F510008400FA3
:1070060083EC23F00EC211F0000E136E000E126E0A
:107016000001FA510008400F83EC23F002010E4BE9
:107026000F2B02010FBFBBD702010F5101E1B2D7EF
:10703600FAC01FF2FBC020F2000E0001FF6F460EE1
:10704600FE6F0001FFBF08D00001FF5112E1800E64
:107056000001FE5DD8B00DD0010E116EFF0E136E4D
:1070660012680001FE5183EC23F00001FE4BFF2B5A
:10707600E8D7DDEC22F0110EC26EC282C2B2FED794
:10708600C4505A6EC3500001E06F5AC0E1F0E0C030
:107096005AF0E1C05BF05A1E5B1E5A4A5B2A000E8C
:1070A6005A24076E020E5B20086E000E0A6E080E4A
:1070B600096E20EC1FF007C0FCF008C0FDF00201CD
:1070C60021510001FC1906E1020122510001FD19BE
:1070D600D8B4E7D0000E356E200E366EC00E376E71
:1070E600000E1C6EA00E1D6E3B0E1E6E21C25AF0C7
:1070F60022C25BF05A1E5B1E5A4A5B2AD8905A3649
:107106005B36800E5A26000E5B22000E5A24D96E7C
:10711600010E5B20DA6EDECF09F0DDCF0AF089ECD6
:107126001CF009C019F00AC01AF00BC01BF036ECAF
:1071360021F019C032F01AC033F01BC034F02DEC28
:1071460024F032C023F233C024F234C025F216C232
:107156001CF017C21DF018C21EF023C219F024C27B
:107166001AF025C21BF036EC21F019C026F21AC01F
:1071760027F21BC028F2000E1C6E000E1D6E400E7C
:107186001E6E26C219F027C21AF028C21BF036EC72
:1071960021F019C03EF01AC03FF01BC040F0BCEC15
:1071A60020F03EC0CAF03FC0CBF0000E0201116FC6
:1071B600080E106F020111BF08D0020111514EE1F5
:1071C600380E0201105DD8B049D0CAC05AF0CBC003
:1071D6005BF05A1E5B1E5A4A5B2A200E5A26000E88
:1071E6005B22020110515A1805E1020111515B1888
:1071F600D8B41ED0200E0201101902011111D8B404
:1072060017D002011F510201211906E10201205186
:1072160002012219D8B40CD010C211F0000E136E60
:10722600010E126E020121510008400F83EC23F07B
:1072360010C211F0000E136E000E126E0001FC510A
:107246000008400F83EC23F00201104B112B0201C2
:1072560011BFBBD70201115101E1B2D7FCC021F227
:10726600FDC022F2000E0201016F460E006F020100
:1072760001BF08D00201015112E1800E0201005D3A
:10728600D8B00DD0000E116EFF0E136E12680201FB
:10729600005183EC23F00201004B012BE8D7DDEC13
:1072A60022F021C25AF022C25BF05A1E5B1E5A4AD5
:1072B6005B2A02011F515A24016E020120515B20F4
:1072C600026EC0EC1CF001C015F002C016F0EAEC2C
:1072D6001CF015C019F016C01AF017C01BF007C233
:1072E6001CF008C21DF009C21EF036EC21F019C0D0
:1072F600EDF01AC0EEF01BC0EFF0EDC001F0EEC0ED
:1073060002F0EFC003F0000E046E7A0E056E440E16
:10731600066EAAEC1FF0D8A01FD0B60E4D6E000E5A
:107326004E6EE30E4F6E7F0E506EEDC019F0EEC03E
:107336001AF0EFC01BF0000E1C6E7A0E1D6E440E86
:107346001E6E49EC20F019C051F01AC052F01BC055
:1073560053F019EC2EF010D0B60E4D6E000E4E6E98
:10736600EA0E4F6E7F0E506EEDC051F0EEC052F039
:10737600EFC053F019EC2EF0000E0F6E010E89ECE3
:107386001DF0B60E2D6E000E2E6E030EA9EC2BF020
:10739600000E0001E36F000EE26F0001E3BF08D0AC
:1073A6000001E35116E10A0E0001E25DD8B011D0EA
:1073B600820E5A6EDE0EE82EFED75A2EFCD700013C
:1073C600E24BE32B0001E3BFF3D70001E35101E1F8
:1073D600EAD781A005D0000E0001CF6F000ECE6F58
:1073E6000001CE510001CF11D8A467EF32F0010E93
:1073F600C26EC282C2B2FED7C4505A6EC350096E64
:107406005AC00AF089EC1CF009C019F00AC01AF03B
:107416000BC01BF0000E1C6EA00E1D6E3B0E1E6EEA
:1074260036EC21F019C016F21AC017F21BC018F27A
:10743600050EC26EC282C2B2FED7C4505A6EC35087
:107446000001D46F5AC0D5F0090EC26E000E0201BB
:10745600036F000E026F020103BF08D00201035141
:107466003CE1800E0201025DD8B037D0C282C2B2C2
:10747600FED7C350C4CF5AF05B6A5AC05BF05A6A53
:107486005A12000E5B12D89002010235D96E020123
:107496000335DA6E000ED926010EDA225AC0DEFF57
:1074A6005BC0DDFF000E0001CD6F000ECC6F03D078
:1074B6000001CC4BCD2B0001D4510001CC5D000165
:1074C600CD51800A5A6E0001D551800A5A58D8A06B
:1074D600EFD70201024B032BBED7FE0E0001D425C7
:1074E6000F6EFF0E0001D521106E000E126E130EE8
:1074F600116EADEC1CF0630E0F24156E000E1020FD
:10750600166EEAEC1CF015C019F016C01AF017C07A
:107516001BF0CD0E1C6ECC0E1D6E3D0E1E6E36EC97
:1075260021F019C007F21AC008F21BC009F2000EBA
:10753600016E7A0E026E440E036E07C204F008C294
:1075460005F009C206F0AAEC1FF0D8B01FD0770EDE
:107556004D6E000E4E6EB50E4F6E7F0E506E07C20C
:1075660019F008C21AF009C21BF0000E1C6E7A0E42
:107576001D6E440E1E6E49EC20F019C051F01AC063
:1075860052F01BC053F019EC2EF010D0770E4D6E52
:10759600000E4E6EBF0E4F6E7F0E506E07C251F03C
:1075A60008C252F009C253F019EC2EF062EC1FF03B
:1075B600DDEC22F0000E0201156F000E146F040EB2
:1075C6000001E56F010EE46F000E0001E76F000E8B
:1075D600E66F000E0001D06F000E0001D16FC7D01C
:1075E600000E356E200E366EC00E376E000E1C6E07
:1075F600A00E1D6E3B0E1E6ED89002011435D96E7C
:1076060002011535DA6E000ED926010EDA22DECF1A
:1076160009F0DDCF0AF089EC1CF009C019F00AC0A8
:107626001AF00BC01BF036EC21F019C032F01AC06C
:1076360033F01BC034F02DEC24F032C023F233C0FB
:1076460024F234C025F216C21CF017C21DF018C26F
:107656001EF023C219F024C21AF025C21BF036EC24
:1076660021F019C026F21AC027F21BC028F2000E1C
:107676001C6E000E1D6E400E1E6E26C219F027C22D
:107686001AF028C21BF036EC21F019C03EF01AC0E1
:107696003FF01BC040F0BCEC20F03EC0F0F03FC015
:1076A600F1F0D89002011435D96E02011535DA6E63
:1076B600000ED926010EDA220001E451DE5C00013B
:1076C600E551DE58D8B018D0D89002011435D96EDD
:1076D60002011535DA6E000ED926010EDA22DECF4A
:1076E600E4F0DDCFE5F0F0C001F0F1C002F0C0EC4F
:1076F6001CF001500001D06FD89002011435D96EEC
:1077060002011535DA6E000ED926010EDA22DE5098
:107716000001E65DDE500001E759D8B018D0D890D8
:1077260002011435D96E02011535DA6E000ED9261E
:10773600010EDA22DECFE6F0DDCFE7F0F0C001F091
:10774600F1C002F0C0EC1CF001500001D16F000145
:10775600F0510008200F116E000E136E000E126E0F
:107766000201145183EC23F00201144B152B020184
:1077760015BF36D70201155105E1800E0201145DD1
:10778600D8A02ED7E4C05AF0E5C05BF05A1E5B1EA7
:107796005A4A5B2A0001E6515A24096E0001E75154
:1077A6005B200A6E89EC1CF009C019F00AC01AF0B9
:1077B6000BC01BF0000E1C6EA00E1D6E3B0E1E6E47
:1077C60036EC21F019C0D6F01AC0D7F01BC0D8F09D
:1077D600D6C019F0D7C01AF0D8C01BF00001D0519E
:1077E600D1C05AF05B6A5A26000E5B22010E5A245B
:1077F600156E000E5B20166EEAEC1CF015C01CF030
:1078060016C01DF017C01EF049EC20F019C004F296
:107816001AC005F21BC006F204C201F005C202F04E
:1078260006C203F0000E046E800E056E3F0E066E55
:10783600AAEC1FF0D8A011D09F0E4D6E000E4E6E12
:10784600DB0E4F6E7F0E506E04C251F005C252F031
:1078560006C253F019EC2EF024D004C219F005C26A
:107866001AF006C21BF0000E1C6E7A0E1D6E440E38
:107876001E6E36EC21F019C0D9F01AC0DAF01BC022
:10788600DBF09F0E4D6E000E4E6EC90E4F6E7F0ED4
:10789600506ED9C051F0DAC052F0DBC053F019EC8B
:1078A6002EF0000E0F6E000E89EC1DF09F0E2D6E51
:1078B600000E2E6E010EA9EC2BF09F0E4D6E000EE3
:1078C6004E6ED20E4F6E7F0E506ED6C051F0D7C0A0
:1078D60052F0D8C053F019EC2EF0770E016E000E60
:1078E600026E9F0E036E000E046E43EC1DF0070E33
:1078F6000F6E000E89EC1DF0770E2D6E000E2E6EAB
:10790600010EA9EC2BF0000E0001E96F000EE86FE6
:107916000001E9BF0CD00001E95107E1050E0001A5
:10792600E85DD8B049EF32F002D049EF32F0820E6E
:107936005A6EDE0EE82EFED75A2EFCD70001E84B13
:10794600E92B0001E9BFF3D70001E95101E1E6D7D0
:1079560049EF32F00000000000000000BE00000009
:107966000E000E0044FE44FE444854FE54244626AF
:1079760010C8C46C92AA4480000806000000007C6F
:10798600820000827C000028107C102810107C10D9
:10799600100080600000101010101000C0C0000021
:1079A60040201008047C82827C000084FE800084D3
:1079B600C2A2928C448292926C302824FE204E8A77
:1079C6008A8A72789492926002E2120A066C929205
:1079D600926C0C9292523C0066660000004636009D
:1079E60000102844820028282828280082442810CD
:1079F6000402A2120C6492F2827CFC222222FCFE79
:107A06009292926C7C82828244FE8282827CFE9278
:107A1600929292FE121212127C82929274FE1010B0
:107A260010FE0000FE00004080827E02FE10284408
:107A360082FE80808080FE040804FEFE040810FE9C
:107A46007C8282827CFE1212120C7C82A242BCFED6
:107A56001232528C8C929292620202FE02027E8056
:107A660080807E3E4080403E7E807E807EC628109E
:107A760028C60E10F0100EC2A2928A860000FE8260
:107A86000004081020400082FE00000804020408DA
:107A96008080808080000001020440A8A8A8F0FE33
:107AA60088888870708888884070888890FE70A85A
:107AB600A8A83010FC12020418A4A4A47CFE100886
:107AC60008F00000FA000000807A0000FE205088CE
:107AD6000000FE000000F8081008F0F8100808F092
:107AE6007088888870F82828281010282830FCF814
:107AF6001008081090A8A8A840087E8880407880C2
:107B06008040F838408040387880788078885020E7
:107B1600508818A0A0A07888C8A89888106C820001
:107B26000000007E000000826C100020101008008B
:107B3600010000000A00000064000000E8030000E5
:107B460010270000A086010040420F008096980092
:107B560000E1F50500CA9A3B00803FCDCC3DD72316
:107B66003C12833AB7D138C62737388635C0D63364
:107B7600CC2B32708930E7DB2EE53C1E42A20D008D
:107B8600803F00204100C842007A44401C4650C352
:107B96004724744997184BBCBE4C6B6E4E03155068
:107BA60079AD60F34971010204081020408000009D
:107BB60000000000000000000000000000000000BF
:107BC60000000000000000000000000000000000AF
:107BD600000000000000000000000000000000009F
:107BE600000000000000000000000000000000008F
:107BF600000000000000000000000000000000007F
:107C0600000000000000000000000000000000006E
:107C1600000000000000000000000000000000005E
:107C2600000000000000000000000000000000004E
:107C360000000000000000000000000000FE02023C
:107C460000262A2A1E00FE2222221C001C22221C9A
:107C560000003E102000262A2A1E00207C22001C3E
:107C660022221C00003E10200020BE001C22221CE6
:107C76000000000000FE003E20201E001A26263BC3
:107C8600001C2A2A1A001A26263B003E20201E0027
:107C96001C2A2A1A00003E10200020BE00262A2A8E
:107CA6001E000000000000000000000000000000B0
:107CB60000000000000000000000000000000000BE
:107CC60000000000000000000000000000000000AE
:107CD600000000000000070001010100000103058B
:107CE6000400010100000001000100010101010181
:107CF60001000001010100000103010081858000EF
:107D060001010100010181808000000000000000E7
:107D1600000000000000000000000000000000005D
:107D2600000000000000000000000000000000004D
:107D3600000000000000000000000000000000003D
:107D4600000000000000000000000000000000002D
:107D5600000000000000F000F00000F00000F0005D
:107D660000E01010E00000F0800000F00000F000DD
:107D760000F000305050F00000E0100000F000E08D
:107D860010101000305050F00000000000000000FD
:107D960000000000000000000000000000000000DD
:107DA60000000000000000000000000000000000CD
:107DB60000000000000000000000000000000000BD
:107DC60000000000000000000000000000000000AD
:107DD600000000000000000000000000000000009D
:107DE600000000000000000000000000000000008D
:107DF600000000000000000000000000000000007D
:107E0600000000000000000000000000000000006C
:107E1600000000000000000000000000000000005C
:107E2600000000000000000000000000000000004C
:107E3600000000000000000000000000000000003C
:107E4600000000000000000000000000000000002C
:107E5600000100000000000000000000000000001B
:107E66000000000001000000000001000000000109
:107E760001010100000000000000000000000000F9
:107E860001000000000001000000000000000000EA
:107E960000000000000000000000000000000000DC
:107EA60000000000000000000000000000000000CC
:107EB60000000000000000000000000000000000BC
:107EC60000000000000000000000000000000000AC
:107ED60000FC0404007C04047C003844444400385C
:107EE60044444400FC40403C00407C00000000FC50
:107EF600040404F8004C54543C0040380438404014
:107F06007C0038444444FC003854543400000000DB
:107F1600000000000000000000000000000000005B
:107F2600000000000000000000000000000000004B
:107F3600000000000000000000000000000000003B
:107F4600000000000000000000000000000000002B
:107F5600000000000000000000000000000000001B
:107F6600000000000000000000000000000000000B
:107F760000000000000000000000000000000000FB
:107F860000000000000000000000000000000000EB
:107F960000000000000000000000000000000000DB
:107FA60000000000000000000000000000000025A6
:107FB6002E3266206D532F7000252E3266207553A3
:107FC6002F7000252E32666D562F700020252E3319
:107FD6006656707000252E3266562F7000252E329A
:107FE600666D5300252E3266755300252E32666D5A
:097FF6005600252E3266560000EB
:020000040020DA
:08000000FFFFFFFFFFFFFFFF00
:020000040030CA
:0E000000000C1F1EFF8181FF0FC00FE00F409C
:00000001FF
